{
  "contractName": "ApplicationContract",
  "abi": [
    {
      "inputs": [
        {
          "internalType": "string",
          "name": "",
          "type": "string"
        }
      ],
      "name": "applications",
      "outputs": [
        {
          "internalType": "string",
          "name": "id",
          "type": "string"
        },
        {
          "internalType": "string",
          "name": "subject",
          "type": "string"
        },
        {
          "internalType": "string",
          "name": "description",
          "type": "string"
        },
        {
          "internalType": "string",
          "name": "file",
          "type": "string"
        },
        {
          "internalType": "string",
          "name": "status",
          "type": "string"
        },
        {
          "internalType": "string",
          "name": "location",
          "type": "string"
        },
        {
          "internalType": "address",
          "name": "applierAddress",
          "type": "address"
        },
        {
          "internalType": "uint256",
          "name": "votes",
          "type": "uint256"
        }
      ],
      "stateMutability": "view",
      "type": "function",
      "constant": true
    },
    {
      "inputs": [
        {
          "internalType": "address",
          "name": "",
          "type": "address"
        },
        {
          "internalType": "uint256",
          "name": "",
          "type": "uint256"
        }
      ],
      "name": "applicationsMadeByAddress",
      "outputs": [
        {
          "internalType": "string",
          "name": "",
          "type": "string"
        }
      ],
      "stateMutability": "view",
      "type": "function",
      "constant": true
    },
    {
      "inputs": [
        {
          "internalType": "address",
          "name": "",
          "type": "address"
        }
      ],
      "name": "rewardBank",
      "outputs": [
        {
          "internalType": "uint256",
          "name": "",
          "type": "uint256"
        }
      ],
      "stateMutability": "view",
      "type": "function",
      "constant": true
    },
    {
      "inputs": [
        {
          "internalType": "string",
          "name": "id",
          "type": "string"
        },
        {
          "internalType": "string",
          "name": "subject",
          "type": "string"
        },
        {
          "internalType": "string",
          "name": "description",
          "type": "string"
        },
        {
          "internalType": "string",
          "name": "status",
          "type": "string"
        },
        {
          "internalType": "string",
          "name": "location",
          "type": "string"
        },
        {
          "internalType": "string",
          "name": "file",
          "type": "string"
        }
      ],
      "name": "create",
      "outputs": [],
      "stateMutability": "nonpayable",
      "type": "function"
    },
    {
      "inputs": [
        {
          "internalType": "string",
          "name": "id",
          "type": "string"
        }
      ],
      "name": "getApplication",
      "outputs": [
        {
          "components": [
            {
              "internalType": "string",
              "name": "id",
              "type": "string"
            },
            {
              "internalType": "string",
              "name": "subject",
              "type": "string"
            },
            {
              "internalType": "string",
              "name": "description",
              "type": "string"
            },
            {
              "internalType": "string",
              "name": "file",
              "type": "string"
            },
            {
              "internalType": "string",
              "name": "status",
              "type": "string"
            },
            {
              "internalType": "string",
              "name": "location",
              "type": "string"
            },
            {
              "internalType": "address",
              "name": "applierAddress",
              "type": "address"
            },
            {
              "internalType": "uint256",
              "name": "votes",
              "type": "uint256"
            }
          ],
          "internalType": "struct ApplicationContract.Application",
          "name": "",
          "type": "tuple"
        }
      ],
      "stateMutability": "view",
      "type": "function",
      "constant": true
    },
    {
      "inputs": [],
      "name": "getApplicationsMadeByAddress",
      "outputs": [
        {
          "internalType": "string[]",
          "name": "",
          "type": "string[]"
        }
      ],
      "stateMutability": "view",
      "type": "function",
      "constant": true
    },
    {
      "inputs": [],
      "name": "getAllApplicationsID",
      "outputs": [
        {
          "internalType": "string[]",
          "name": "",
          "type": "string[]"
        }
      ],
      "stateMutability": "view",
      "type": "function",
      "constant": true
    },
    {
      "inputs": [
        {
          "internalType": "string",
          "name": "id",
          "type": "string"
        },
        {
          "internalType": "uint256",
          "name": "amount",
          "type": "uint256"
        }
      ],
      "name": "addUpvote",
      "outputs": [],
      "stateMutability": "payable",
      "type": "function",
      "payable": true
    },
    {
      "inputs": [],
      "name": "getBalance",
      "outputs": [
        {
          "internalType": "uint256",
          "name": "",
          "type": "uint256"
        }
      ],
      "stateMutability": "view",
      "type": "function",
      "constant": true
    },
    {
      "inputs": [],
      "name": "withdraw",
      "outputs": [],
      "stateMutability": "payable",
      "type": "function",
      "payable": true
    },
    {
      "inputs": [],
      "name": "getID",
      "outputs": [
        {
          "internalType": "address",
          "name": "",
          "type": "address"
        }
      ],
      "stateMutability": "view",
      "type": "function",
      "constant": true
    }
  ],
  "bytecode": "0x608060405234801561001057600080fd5b50612235806100206000396000f3fe60806040526004361061009c5760003560e01c806346f6df731161006457806346f6df7314610170578063ab9dbd071461018c578063b0c004b0146101b7578063bbc1d757146101e0578063e6f5291b1461021d578063fcdb378b1461025a5761009c565b806312065fe0146100a1578063185f4882146100cc5780632ba610f5146101105780632dc989de1461013b5780633ccfd60b14610166575b600080fd5b3480156100ad57600080fd5b506100b6610297565b6040516100c39190611671565b60405180910390f35b3480156100d857600080fd5b506100f360048036038101906100ee91906117e6565b6102de565b6040516101079897969594939291906118ef565b60405180910390f35b34801561011c57600080fd5b5061012561068c565b6040516101329190611aa3565b60405180910390f35b34801561014757600080fd5b50610150610765565b60405161015d9190611aa3565b60405180910390f35b61016e61087b565b005b61018a60048036038101906101859190611af1565b61094e565b005b34801561019857600080fd5b506101a1610ef7565b6040516101ae9190611b4d565b60405180910390f35b3480156101c357600080fd5b506101de60048036038101906101d99190611b68565b610eff565b005b3480156101ec57600080fd5b5061020760048036038101906102029190611cc9565b611127565b6040516102149190611671565b60405180910390f35b34801561022957600080fd5b50610244600480360381019061023f91906117e6565b61113f565b6040516102519190611de7565b60405180910390f35b34801561026657600080fd5b50610281600480360381019061027c9190611e09565b611544565b60405161028e9190611e49565b60405180910390f35b6000600260003373ffffffffffffffffffffffffffffffffffffffff1673ffffffffffffffffffffffffffffffffffffffff16815260200190815260200160002054905090565b60008180516020810182018051848252602083016020850120818352809550505050505060009150905080600001805461031790611e9a565b80601f016020809104026020016040519081016040528092919081815260200182805461034390611e9a565b80156103905780601f1061036557610100808354040283529160200191610390565b820191906000526020600020905b81548152906001019060200180831161037357829003601f168201915b5050505050908060010180546103a590611e9a565b80601f01602080910402602001604051908101604052809291908181526020018280546103d190611e9a565b801561041e5780601f106103f35761010080835404028352916020019161041e565b820191906000526020600020905b81548152906001019060200180831161040157829003601f168201915b50505050509080600201805461043390611e9a565b80601f016020809104026020016040519081016040528092919081815260200182805461045f90611e9a565b80156104ac5780601f10610481576101008083540402835291602001916104ac565b820191906000526020600020905b81548152906001019060200180831161048f57829003601f168201915b5050505050908060030180546104c190611e9a565b80601f01602080910402602001604051908101604052809291908181526020018280546104ed90611e9a565b801561053a5780601f1061050f5761010080835404028352916020019161053a565b820191906000526020600020905b81548152906001019060200180831161051d57829003601f168201915b50505050509080600401805461054f90611e9a565b80601f016020809104026020016040519081016040528092919081815260200182805461057b90611e9a565b80156105c85780601f1061059d576101008083540402835291602001916105c8565b820191906000526020600020905b8154815290600101906020018083116105ab57829003601f168201915b5050505050908060050180546105dd90611e9a565b80601f016020809104026020016040519081016040528092919081815260200182805461060990611e9a565b80156106565780601f1061062b57610100808354040283529160200191610656565b820191906000526020600020905b81548152906001019060200180831161063957829003601f168201915b5050505050908060060160009054906101000a900473ffffffffffffffffffffffffffffffffffffffff16908060070154905088565b60606003805480602002602001604051908101604052809291908181526020016000905b8282101561075c5783829060005260206000200180546106cf90611e9a565b80601f01602080910402602001604051908101604052809291908181526020018280546106fb90611e9a565b80156107485780601f1061071d57610100808354040283529160200191610748565b820191906000526020600020905b81548152906001019060200180831161072b57829003601f168201915b5050505050815260200190600101906106b0565b50505050905090565b6060600160003373ffffffffffffffffffffffffffffffffffffffff1673ffffffffffffffffffffffffffffffffffffffff168152602001908152602001600020805480602002602001604051908101604052809291908181526020016000905b828210156108725783829060005260206000200180546107e590611e9a565b80601f016020809104026020016040519081016040528092919081815260200182805461081190611e9a565b801561085e5780601f106108335761010080835404028352916020019161085e565b820191906000526020600020905b81548152906001019060200180831161084157829003601f168201915b5050505050815260200190600101906107c6565b50505050905090565b60003390508073ffffffffffffffffffffffffffffffffffffffff166108fc600260003373ffffffffffffffffffffffffffffffffffffffff1673ffffffffffffffffffffffffffffffffffffffff168152602001908152602001600020549081150290604051600060405180830381858888f19350505050158015610905573d6000803e3d6000fd5b506000600260003373ffffffffffffffffffffffffffffffffffffffff1673ffffffffffffffffffffffffffffffffffffffff1681526020019081526020016000208190555050565b806002600080856040516109629190611f07565b908152602001604051809103902060060160009054906101000a900473ffffffffffffffffffffffffffffffffffffffff1673ffffffffffffffffffffffffffffffffffffffff1673ffffffffffffffffffffffffffffffffffffffff16815260200190815260200160002060008282546109dd9190611f4d565b92505081905550600080836040516109f59190611f07565b908152602001604051809103902060405180610100016040529081600082018054610a1f90611e9a565b80601f0160208091040260200160405190810160405280929190818152602001828054610a4b90611e9a565b8015610a985780601f10610a6d57610100808354040283529160200191610a98565b820191906000526020600020905b815481529060010190602001808311610a7b57829003601f168201915b50505050508152602001600182018054610ab190611e9a565b80601f0160208091040260200160405190810160405280929190818152602001828054610add90611e9a565b8015610b2a5780601f10610aff57610100808354040283529160200191610b2a565b820191906000526020600020905b815481529060010190602001808311610b0d57829003601f168201915b50505050508152602001600282018054610b4390611e9a565b80601f0160208091040260200160405190810160405280929190818152602001828054610b6f90611e9a565b8015610bbc5780601f10610b9157610100808354040283529160200191610bbc565b820191906000526020600020905b815481529060010190602001808311610b9f57829003601f168201915b50505050508152602001600382018054610bd590611e9a565b80601f0160208091040260200160405190810160405280929190818152602001828054610c0190611e9a565b8015610c4e5780601f10610c2357610100808354040283529160200191610c4e565b820191906000526020600020905b815481529060010190602001808311610c3157829003601f168201915b50505050508152602001600482018054610c6790611e9a565b80601f0160208091040260200160405190810160405280929190818152602001828054610c9390611e9a565b8015610ce05780601f10610cb557610100808354040283529160200191610ce0565b820191906000526020600020905b815481529060010190602001808311610cc357829003601f168201915b50505050508152602001600582018054610cf990611e9a565b80601f0160208091040260200160405190810160405280929190818152602001828054610d2590611e9a565b8015610d725780601f10610d4757610100808354040283529160200191610d72565b820191906000526020600020905b815481529060010190602001808311610d5557829003601f168201915b505050505081526020016006820160009054906101000a900473ffffffffffffffffffffffffffffffffffffffff1673ffffffffffffffffffffffffffffffffffffffff1673ffffffffffffffffffffffffffffffffffffffff168152602001600782015481525050905060018160e001818151610df09190611f4d565b915081815250508060008260000151604051610e0c9190611f07565b90815260200160405180910390206000820151816000019081610e2f919061212d565b506020820151816001019081610e45919061212d565b506040820151816002019081610e5b919061212d565b506060820151816003019081610e71919061212d565b506080820151816004019081610e87919061212d565b5060a0820151816005019081610e9d919061212d565b5060c08201518160060160006101000a81548173ffffffffffffffffffffffffffffffffffffffff021916908373ffffffffffffffffffffffffffffffffffffffff16021790555060e08201518160070155905050505050565b600033905090565b610f076115fd565b868160000181905250858160200181905250848160400181905250838160800181905250828160a00181905250338160c0019073ffffffffffffffffffffffffffffffffffffffff16908173ffffffffffffffffffffffffffffffffffffffff168152505081816060018190525060008160e001818152505080600088604051610f919190611f07565b90815260200160405180910390206000820151816000019081610fb4919061212d565b506020820151816001019081610fca919061212d565b506040820151816002019081610fe0919061212d565b506060820151816003019081610ff6919061212d565b50608082015181600401908161100c919061212d565b5060a0820151816005019081611022919061212d565b5060c08201518160060160006101000a81548173ffffffffffffffffffffffffffffffffffffffff021916908373ffffffffffffffffffffffffffffffffffffffff16021790555060e08201518160070155905050600160003373ffffffffffffffffffffffffffffffffffffffff1673ffffffffffffffffffffffffffffffffffffffff168152602001908152602001600020879080600181540180825580915050600190039060005260206000200160009091909190915090816110e8919061212d565b5060038790806001815401808255809150506001900390600052602060002001600090919091909150908161111d919061212d565b5050505050505050565b60026020528060005260406000206000915090505481565b6111476115fd565b6000826040516111579190611f07565b90815260200160405180910390206040518061010001604052908160008201805461118190611e9a565b80601f01602080910402602001604051908101604052809291908181526020018280546111ad90611e9a565b80156111fa5780601f106111cf576101008083540402835291602001916111fa565b820191906000526020600020905b8154815290600101906020018083116111dd57829003601f168201915b5050505050815260200160018201805461121390611e9a565b80601f016020809104026020016040519081016040528092919081815260200182805461123f90611e9a565b801561128c5780601f106112615761010080835404028352916020019161128c565b820191906000526020600020905b81548152906001019060200180831161126f57829003601f168201915b505050505081526020016002820180546112a590611e9a565b80601f01602080910402602001604051908101604052809291908181526020018280546112d190611e9a565b801561131e5780601f106112f35761010080835404028352916020019161131e565b820191906000526020600020905b81548152906001019060200180831161130157829003601f168201915b5050505050815260200160038201805461133790611e9a565b80601f016020809104026020016040519081016040528092919081815260200182805461136390611e9a565b80156113b05780601f10611385576101008083540402835291602001916113b0565b820191906000526020600020905b81548152906001019060200180831161139357829003601f168201915b505050505081526020016004820180546113c990611e9a565b80601f01602080910402602001604051908101604052809291908181526020018280546113f590611e9a565b80156114425780601f1061141757610100808354040283529160200191611442565b820191906000526020600020905b81548152906001019060200180831161142557829003601f168201915b5050505050815260200160058201805461145b90611e9a565b80601f016020809104026020016040519081016040528092919081815260200182805461148790611e9a565b80156114d45780601f106114a9576101008083540402835291602001916114d4565b820191906000526020600020905b8154815290600101906020018083116114b757829003601f168201915b505050505081526020016006820160009054906101000a900473ffffffffffffffffffffffffffffffffffffffff1673ffffffffffffffffffffffffffffffffffffffff1673ffffffffffffffffffffffffffffffffffffffff1681526020016007820154815250509050919050565b6001602052816000526040600020818154811061156057600080fd5b9060005260206000200160009150915050805461157c90611e9a565b80601f01602080910402602001604051908101604052809291908181526020018280546115a890611e9a565b80156115f55780601f106115ca576101008083540402835291602001916115f5565b820191906000526020600020905b8154815290600101906020018083116115d857829003601f168201915b505050505081565b604051806101000160405280606081526020016060815260200160608152602001606081526020016060815260200160608152602001600073ffffffffffffffffffffffffffffffffffffffff168152602001600081525090565b6000819050919050565b61166b81611658565b82525050565b60006020820190506116866000830184611662565b92915050565b6000604051905090565b600080fd5b600080fd5b600080fd5b600080fd5b6000601f19601f8301169050919050565b7f4e487b7100000000000000000000000000000000000000000000000000000000600052604160045260246000fd5b6116f3826116aa565b810181811067ffffffffffffffff82111715611712576117116116bb565b5b80604052505050565b600061172561168c565b905061173182826116ea565b919050565b600067ffffffffffffffff821115611751576117506116bb565b5b61175a826116aa565b9050602081019050919050565b82818337600083830152505050565b600061178961178484611736565b61171b565b9050828152602081018484840111156117a5576117a46116a5565b5b6117b0848285611767565b509392505050565b600082601f8301126117cd576117cc6116a0565b5b81356117dd848260208601611776565b91505092915050565b6000602082840312156117fc576117fb611696565b5b600082013567ffffffffffffffff81111561181a5761181961169b565b5b611826848285016117b8565b91505092915050565b600081519050919050565b600082825260208201905092915050565b60005b8381101561186957808201518184015260208101905061184e565b60008484015250505050565b60006118808261182f565b61188a818561183a565b935061189a81856020860161184b565b6118a3816116aa565b840191505092915050565b600073ffffffffffffffffffffffffffffffffffffffff82169050919050565b60006118d9826118ae565b9050919050565b6118e9816118ce565b82525050565b600061010082019050818103600083015261190a818b611875565b9050818103602083015261191e818a611875565b905081810360408301526119328189611875565b905081810360608301526119468188611875565b9050818103608083015261195a8187611875565b905081810360a083015261196e8186611875565b905061197d60c08301856118e0565b61198a60e0830184611662565b9998505050505050505050565b600081519050919050565b600082825260208201905092915050565b6000819050602082019050919050565b600082825260208201905092915050565b60006119df8261182f565b6119e981856119c3565b93506119f981856020860161184b565b611a02816116aa565b840191505092915050565b6000611a1983836119d4565b905092915050565b6000602082019050919050565b6000611a3982611997565b611a4381856119a2565b935083602082028501611a55856119b3565b8060005b85811015611a915784840389528151611a728582611a0d565b9450611a7d83611a21565b925060208a01995050600181019050611a59565b50829750879550505050505092915050565b60006020820190508181036000830152611abd8184611a2e565b905092915050565b611ace81611658565b8114611ad957600080fd5b50565b600081359050611aeb81611ac5565b92915050565b60008060408385031215611b0857611b07611696565b5b600083013567ffffffffffffffff811115611b2657611b2561169b565b5b611b32858286016117b8565b9250506020611b4385828601611adc565b9150509250929050565b6000602082019050611b6260008301846118e0565b92915050565b60008060008060008060c08789031215611b8557611b84611696565b5b600087013567ffffffffffffffff811115611ba357611ba261169b565b5b611baf89828a016117b8565b965050602087013567ffffffffffffffff811115611bd057611bcf61169b565b5b611bdc89828a016117b8565b955050604087013567ffffffffffffffff811115611bfd57611bfc61169b565b5b611c0989828a016117b8565b945050606087013567ffffffffffffffff811115611c2a57611c2961169b565b5b611c3689828a016117b8565b935050608087013567ffffffffffffffff811115611c5757611c5661169b565b5b611c6389828a016117b8565b92505060a087013567ffffffffffffffff811115611c8457611c8361169b565b5b611c9089828a016117b8565b9150509295509295509295565b611ca6816118ce565b8114611cb157600080fd5b50565b600081359050611cc381611c9d565b92915050565b600060208284031215611cdf57611cde611696565b5b6000611ced84828501611cb4565b91505092915050565b611cff816118ce565b82525050565b611d0e81611658565b82525050565b6000610100830160008301518482036000860152611d3282826119d4565b91505060208301518482036020860152611d4c82826119d4565b91505060408301518482036040860152611d6682826119d4565b91505060608301518482036060860152611d8082826119d4565b91505060808301518482036080860152611d9a82826119d4565b91505060a083015184820360a0860152611db482826119d4565b91505060c0830151611dc960c0860182611cf6565b5060e0830151611ddc60e0860182611d05565b508091505092915050565b60006020820190508181036000830152611e018184611d14565b905092915050565b60008060408385031215611e2057611e1f611696565b5b6000611e2e85828601611cb4565b9250506020611e3f85828601611adc565b9150509250929050565b60006020820190508181036000830152611e638184611875565b905092915050565b7f4e487b7100000000000000000000000000000000000000000000000000000000600052602260045260246000fd5b60006002820490506001821680611eb257607f821691505b602082108103611ec557611ec4611e6b565b5b50919050565b600081905092915050565b6000611ee18261182f565b611eeb8185611ecb565b9350611efb81856020860161184b565b80840191505092915050565b6000611f138284611ed6565b915081905092915050565b7f4e487b7100000000000000000000000000000000000000000000000000000000600052601160045260246000fd5b6000611f5882611658565b9150611f6383611658565b9250828201905080821115611f7b57611f7a611f1e565b5b92915050565b60008190508160005260206000209050919050565b60006020601f8301049050919050565b600082821b905092915050565b600060088302611fe37fffffffffffffffffffffffffffffffffffffffffffffffffffffffffffffffff82611fa6565b611fed8683611fa6565b95508019841693508086168417925050509392505050565b6000819050919050565b600061202a61202561202084611658565b612005565b611658565b9050919050565b6000819050919050565b6120448361200f565b61205861205082612031565b848454611fb3565b825550505050565b600090565b61206d612060565b61207881848461203b565b505050565b5b8181101561209c57612091600082612065565b60018101905061207e565b5050565b601f8211156120e1576120b281611f81565b6120bb84611f96565b810160208510156120ca578190505b6120de6120d685611f96565b83018261207d565b50505b505050565b600082821c905092915050565b6000612104600019846008026120e6565b1980831691505092915050565b600061211d83836120f3565b9150826002028217905092915050565b6121368261182f565b67ffffffffffffffff81111561214f5761214e6116bb565b5b6121598254611e9a565b6121648282856120a0565b600060209050601f8311600181146121975760008415612185578287015190505b61218f8582612111565b8655506121f7565b601f1984166121a586611f81565b60005b828110156121cd578489015182556001820191506020850194506020810190506121a8565b868310156121ea57848901516121e6601f8916826120f3565b8355505b6001600288020188555050505b50505050505056fea264697066735822122083782419236ea87002b5dec95b845834578e5e276ea5edc411ef4c73c21c86e964736f6c63430008110033",
  "immutableReferences": {},
  "source": "// SPDX-License-Identifier: GPL-3.0\npragma solidity >=0.8.0 <0.9.0;\n\ncontract ApplicationContract {\n    struct Application {\n        string id;\n        string subject;\n        string description;\n        string file;\n        string status;\n        string location;\n        address applierAddress;\n        uint256 votes;\n    }\n\n    mapping(string => Application) public applications;\n    mapping(address => string[]) public applicationsMadeByAddress;\n    mapping(address => uint256) public rewardBank;\n    string[] allApplications;\n\n    function create(\n        string memory id,\n        string memory subject,\n        string memory description,\n        string memory status,\n        string memory location,\n        string memory file\n    ) public {\n        Application memory a;\n        a.id = id;\n        a.subject = subject;\n        a.description = description;\n        a.status=status;\n        a.location=location;\n        a.applierAddress = msg.sender;\n        a.file = file;\n        a.votes = 0;\n        applications[id] = a;\n        applicationsMadeByAddress[msg.sender].push(id);\n\n        allApplications.push(id);\n    }\n\n\n    // function to view appication\n    function getApplication(string memory id) public view returns (Application memory) {\n        return applications[id];\n    }\n\n    function getApplicationsMadeByAddress() public view returns(string[] memory){\n        return applicationsMadeByAddress[msg.sender];\n    }\n\n    function getAllApplicationsID() public view returns(string[] memory){\n        return allApplications;\n    }\n\n\n    // reward system\n    function addUpvote(string memory id, uint256 amount) payable public{\n        // require(msg.value == amount);\n        // require(amount <= address(msg.sender).balance);\n\n\n        rewardBank[ applications[id].applierAddress ] += amount;\n\n        Application memory a = applications[id];\n        a.votes += 1;\n        applications[a.id] = a;\n    }\n\n    function getBalance() public view returns (uint256) {\n        return rewardBank[msg.sender];\n    }\n\n    function withdraw() payable public {\n        address payable user = payable(msg.sender);\n        user.transfer( rewardBank[msg.sender] );\n        rewardBank[msg.sender] = 0;\n    }\n\n    // test function to see your own ID\n    function getID() public view returns(address){\n        return msg.sender;\n    }\n\n}",
  "sourcePath": "C:\\Users\\Harsheet\\Downloads\\spotlight-main\\spotlight-main\\report-contract\\contracts\\1_ApplicationContract.sol",
  "compiler": {
    "name": "solc",
    "version": "0.8.17+commit.8df45f5f.Emscripten.clang"
  },
  "schemaVersion": "3.4.16",
  "updatedAt": "2023-09-30T02:06:37.839Z",
  "networkType": "ethereum",
  "devdoc": {
    "kind": "dev",
    "methods": {},
    "version": 1
  },
  "userdoc": {
    "kind": "user",
    "methods": {},
    "version": 1
  }
}