{
  "contractName": "ApplicationContract",
  "abi": [
    {
      "inputs": [
        {
          "internalType": "string",
          "name": "",
          "type": "string"
        }
      ],
      "name": "applications",
      "outputs": [
        {
          "internalType": "string",
          "name": "id",
          "type": "string"
        },
        {
          "internalType": "string",
          "name": "subject",
          "type": "string"
        },
        {
          "internalType": "string",
          "name": "description",
          "type": "string"
        },
        {
          "internalType": "string",
          "name": "file",
          "type": "string"
        },
        {
          "internalType": "string",
          "name": "location",
          "type": "string"
        },
        {
          "internalType": "address",
          "name": "applierAddress",
          "type": "address"
        },
        {
          "internalType": "uint256",
          "name": "votes",
          "type": "uint256"
        }
      ],
      "stateMutability": "view",
      "type": "function",
      "constant": true
    },
    {
      "inputs": [
        {
          "internalType": "address",
          "name": "",
          "type": "address"
        },
        {
          "internalType": "uint256",
          "name": "",
          "type": "uint256"
        }
      ],
      "name": "applicationsMadeByAddress",
      "outputs": [
        {
          "internalType": "string",
          "name": "",
          "type": "string"
        }
      ],
      "stateMutability": "view",
      "type": "function",
      "constant": true
    },
    {
      "inputs": [
        {
          "internalType": "address",
          "name": "",
          "type": "address"
        }
      ],
      "name": "rewardBank",
      "outputs": [
        {
          "internalType": "uint256",
          "name": "",
          "type": "uint256"
        }
      ],
      "stateMutability": "view",
      "type": "function",
      "constant": true
    },
    {
      "inputs": [
        {
          "internalType": "string",
          "name": "id",
          "type": "string"
        },
        {
          "internalType": "string",
          "name": "subject",
          "type": "string"
        },
        {
          "internalType": "string",
          "name": "description",
          "type": "string"
        },
        {
          "internalType": "string",
          "name": "location",
          "type": "string"
        },
        {
          "internalType": "string",
          "name": "file",
          "type": "string"
        }
      ],
      "name": "create",
      "outputs": [],
      "stateMutability": "nonpayable",
      "type": "function"
    },
    {
      "inputs": [
        {
          "internalType": "string",
          "name": "id",
          "type": "string"
        }
      ],
      "name": "getApplication",
      "outputs": [
        {
          "components": [
            {
              "internalType": "string",
              "name": "id",
              "type": "string"
            },
            {
              "internalType": "string",
              "name": "subject",
              "type": "string"
            },
            {
              "internalType": "string",
              "name": "description",
              "type": "string"
            },
            {
              "internalType": "string",
              "name": "file",
              "type": "string"
            },
            {
              "internalType": "string",
              "name": "location",
              "type": "string"
            },
            {
              "internalType": "address",
              "name": "applierAddress",
              "type": "address"
            },
            {
              "internalType": "uint256",
              "name": "votes",
              "type": "uint256"
            }
          ],
          "internalType": "struct ApplicationContract.Application",
          "name": "",
          "type": "tuple"
        }
      ],
      "stateMutability": "view",
      "type": "function",
      "constant": true
    },
    {
      "inputs": [],
      "name": "getApplicationsMadeByAddress",
      "outputs": [
        {
          "internalType": "string[]",
          "name": "",
          "type": "string[]"
        }
      ],
      "stateMutability": "view",
      "type": "function",
      "constant": true
    },
    {
      "inputs": [],
      "name": "getAllApplicationsID",
      "outputs": [
        {
          "internalType": "string[]",
          "name": "",
          "type": "string[]"
        }
      ],
      "stateMutability": "view",
      "type": "function",
      "constant": true
    },
    {
      "inputs": [
        {
          "internalType": "string",
          "name": "id",
          "type": "string"
        },
        {
          "internalType": "uint256",
          "name": "amount",
          "type": "uint256"
        }
      ],
      "name": "addUpvote",
      "outputs": [],
      "stateMutability": "payable",
      "type": "function",
      "payable": true
    },
    {
      "inputs": [],
      "name": "getBalance",
      "outputs": [
        {
          "internalType": "uint256",
          "name": "",
          "type": "uint256"
        }
      ],
      "stateMutability": "view",
      "type": "function",
      "constant": true
    },
    {
      "inputs": [],
      "name": "withdraw",
      "outputs": [],
      "stateMutability": "payable",
      "type": "function",
      "payable": true
    },
    {
      "inputs": [],
      "name": "getID",
      "outputs": [
        {
          "internalType": "address",
          "name": "",
          "type": "address"
        }
      ],
      "stateMutability": "view",
      "type": "function",
      "constant": true
    }
  ],
  "bytecode": "0x608060405234801561001057600080fd5b50611fe3806100206000396000f3fe60806040526004361061009c5760003560e01c80633ccfd60b116100645780633ccfd60b1461018e57806346f6df7314610198578063ab9dbd07146101b4578063bbc1d757146101df578063e6f5291b1461021c578063fcdb378b146102595761009c565b806312065fe0146100a1578063185f4882146100cc5780631953dc731461010f5780632ba610f5146101385780632dc989de14610163575b600080fd5b3480156100ad57600080fd5b506100b6610296565b6040516100c3919061147e565b60405180910390f35b3480156100d857600080fd5b506100f360048036038101906100ee91906115f3565b6102dd565b60405161010697969594939291906116fc565b60405180910390f35b34801561011b57600080fd5b506101366004803603810190610131919061178e565b6105fd565b005b34801561014457600080fd5b5061014d610805565b60405161015a91906119a1565b60405180910390f35b34801561016f57600080fd5b506101786108de565b60405161018591906119a1565b60405180910390f35b6101966109f4565b005b6101b260048036038101906101ad91906119ef565b610ac7565b005b3480156101c057600080fd5b506101c9610fc7565b6040516101d69190611a4b565b60405180910390f35b3480156101eb57600080fd5b5061020660048036038101906102019190611a92565b610fcf565b604051610213919061147e565b60405180910390f35b34801561022857600080fd5b50610243600480360381019061023e91906115f3565b610fe7565b6040516102509190611b95565b60405180910390f35b34801561026557600080fd5b50610280600480360381019061027b9190611bb7565b611359565b60405161028d9190611bf7565b60405180910390f35b6000600260003373ffffffffffffffffffffffffffffffffffffffff1673ffffffffffffffffffffffffffffffffffffffff16815260200190815260200160002054905090565b60008180516020810182018051848252602083016020850120818352809550505050505060009150905080600001805461031690611c48565b80601f016020809104026020016040519081016040528092919081815260200182805461034290611c48565b801561038f5780601f106103645761010080835404028352916020019161038f565b820191906000526020600020905b81548152906001019060200180831161037257829003601f168201915b5050505050908060010180546103a490611c48565b80601f01602080910402602001604051908101604052809291908181526020018280546103d090611c48565b801561041d5780601f106103f25761010080835404028352916020019161041d565b820191906000526020600020905b81548152906001019060200180831161040057829003601f168201915b50505050509080600201805461043290611c48565b80601f016020809104026020016040519081016040528092919081815260200182805461045e90611c48565b80156104ab5780601f10610480576101008083540402835291602001916104ab565b820191906000526020600020905b81548152906001019060200180831161048e57829003601f168201915b5050505050908060030180546104c090611c48565b80601f01602080910402602001604051908101604052809291908181526020018280546104ec90611c48565b80156105395780601f1061050e57610100808354040283529160200191610539565b820191906000526020600020905b81548152906001019060200180831161051c57829003601f168201915b50505050509080600401805461054e90611c48565b80601f016020809104026020016040519081016040528092919081815260200182805461057a90611c48565b80156105c75780601f1061059c576101008083540402835291602001916105c7565b820191906000526020600020905b8154815290600101906020018083116105aa57829003601f168201915b5050505050908060050160009054906101000a900473ffffffffffffffffffffffffffffffffffffffff16908060060154905087565b610605611412565b858160000181905250848160200181905250838160400181905250828160800181905250338160a0019073ffffffffffffffffffffffffffffffffffffffff16908173ffffffffffffffffffffffffffffffffffffffff168152505081816060018190525060008160c0018181525050806000876040516106869190611cb5565b908152602001604051809103902060008201518160000190816106a99190611e78565b5060208201518160010190816106bf9190611e78565b5060408201518160020190816106d59190611e78565b5060608201518160030190816106eb9190611e78565b5060808201518160040190816107019190611e78565b5060a08201518160050160006101000a81548173ffffffffffffffffffffffffffffffffffffffff021916908373ffffffffffffffffffffffffffffffffffffffff16021790555060c08201518160060155905050600160003373ffffffffffffffffffffffffffffffffffffffff1673ffffffffffffffffffffffffffffffffffffffff168152602001908152602001600020869080600181540180825580915050600190039060005260206000200160009091909190915090816107c79190611e78565b506003869080600181540180825580915050600190039060005260206000200160009091909190915090816107fc9190611e78565b50505050505050565b60606003805480602002602001604051908101604052809291908181526020016000905b828210156108d557838290600052602060002001805461084890611c48565b80601f016020809104026020016040519081016040528092919081815260200182805461087490611c48565b80156108c15780601f10610896576101008083540402835291602001916108c1565b820191906000526020600020905b8154815290600101906020018083116108a457829003601f168201915b505050505081526020019060010190610829565b50505050905090565b6060600160003373ffffffffffffffffffffffffffffffffffffffff1673ffffffffffffffffffffffffffffffffffffffff168152602001908152602001600020805480602002602001604051908101604052809291908181526020016000905b828210156109eb57838290600052602060002001805461095e90611c48565b80601f016020809104026020016040519081016040528092919081815260200182805461098a90611c48565b80156109d75780601f106109ac576101008083540402835291602001916109d7565b820191906000526020600020905b8154815290600101906020018083116109ba57829003601f168201915b50505050508152602001906001019061093f565b50505050905090565b60003390508073ffffffffffffffffffffffffffffffffffffffff166108fc600260003373ffffffffffffffffffffffffffffffffffffffff1673ffffffffffffffffffffffffffffffffffffffff168152602001908152602001600020549081150290604051600060405180830381858888f19350505050158015610a7e573d6000803e3d6000fd5b506000600260003373ffffffffffffffffffffffffffffffffffffffff1673ffffffffffffffffffffffffffffffffffffffff1681526020019081526020016000208190555050565b80600260008085604051610adb9190611cb5565b908152602001604051809103902060050160009054906101000a900473ffffffffffffffffffffffffffffffffffffffff1673ffffffffffffffffffffffffffffffffffffffff1673ffffffffffffffffffffffffffffffffffffffff1681526020019081526020016000206000828254610b569190611f79565b9250508190555060008083604051610b6e9190611cb5565b90815260200160405180910390206040518060e0016040529081600082018054610b9790611c48565b80601f0160208091040260200160405190810160405280929190818152602001828054610bc390611c48565b8015610c105780601f10610be557610100808354040283529160200191610c10565b820191906000526020600020905b815481529060010190602001808311610bf357829003601f168201915b50505050508152602001600182018054610c2990611c48565b80601f0160208091040260200160405190810160405280929190818152602001828054610c5590611c48565b8015610ca25780601f10610c7757610100808354040283529160200191610ca2565b820191906000526020600020905b815481529060010190602001808311610c8557829003601f168201915b50505050508152602001600282018054610cbb90611c48565b80601f0160208091040260200160405190810160405280929190818152602001828054610ce790611c48565b8015610d345780601f10610d0957610100808354040283529160200191610d34565b820191906000526020600020905b815481529060010190602001808311610d1757829003601f168201915b50505050508152602001600382018054610d4d90611c48565b80601f0160208091040260200160405190810160405280929190818152602001828054610d7990611c48565b8015610dc65780601f10610d9b57610100808354040283529160200191610dc6565b820191906000526020600020905b815481529060010190602001808311610da957829003601f168201915b50505050508152602001600482018054610ddf90611c48565b80601f0160208091040260200160405190810160405280929190818152602001828054610e0b90611c48565b8015610e585780601f10610e2d57610100808354040283529160200191610e58565b820191906000526020600020905b815481529060010190602001808311610e3b57829003601f168201915b505050505081526020016005820160009054906101000a900473ffffffffffffffffffffffffffffffffffffffff1673ffffffffffffffffffffffffffffffffffffffff1673ffffffffffffffffffffffffffffffffffffffff168152602001600682015481525050905060018160c001818151610ed69190611f79565b915081815250508060008260000151604051610ef29190611cb5565b90815260200160405180910390206000820151816000019081610f159190611e78565b506020820151816001019081610f2b9190611e78565b506040820151816002019081610f419190611e78565b506060820151816003019081610f579190611e78565b506080820151816004019081610f6d9190611e78565b5060a08201518160050160006101000a81548173ffffffffffffffffffffffffffffffffffffffff021916908373ffffffffffffffffffffffffffffffffffffffff16021790555060c08201518160060155905050505050565b600033905090565b60026020528060005260406000206000915090505481565b610fef611412565b600082604051610fff9190611cb5565b90815260200160405180910390206040518060e001604052908160008201805461102890611c48565b80601f016020809104026020016040519081016040528092919081815260200182805461105490611c48565b80156110a15780601f10611076576101008083540402835291602001916110a1565b820191906000526020600020905b81548152906001019060200180831161108457829003601f168201915b505050505081526020016001820180546110ba90611c48565b80601f01602080910402602001604051908101604052809291908181526020018280546110e690611c48565b80156111335780601f1061110857610100808354040283529160200191611133565b820191906000526020600020905b81548152906001019060200180831161111657829003601f168201915b5050505050815260200160028201805461114c90611c48565b80601f016020809104026020016040519081016040528092919081815260200182805461117890611c48565b80156111c55780601f1061119a576101008083540402835291602001916111c5565b820191906000526020600020905b8154815290600101906020018083116111a857829003601f168201915b505050505081526020016003820180546111de90611c48565b80601f016020809104026020016040519081016040528092919081815260200182805461120a90611c48565b80156112575780601f1061122c57610100808354040283529160200191611257565b820191906000526020600020905b81548152906001019060200180831161123a57829003601f168201915b5050505050815260200160048201805461127090611c48565b80601f016020809104026020016040519081016040528092919081815260200182805461129c90611c48565b80156112e95780601f106112be576101008083540402835291602001916112e9565b820191906000526020600020905b8154815290600101906020018083116112cc57829003601f168201915b505050505081526020016005820160009054906101000a900473ffffffffffffffffffffffffffffffffffffffff1673ffffffffffffffffffffffffffffffffffffffff1673ffffffffffffffffffffffffffffffffffffffff1681526020016006820154815250509050919050565b6001602052816000526040600020818154811061137557600080fd5b9060005260206000200160009150915050805461139190611c48565b80601f01602080910402602001604051908101604052809291908181526020018280546113bd90611c48565b801561140a5780601f106113df5761010080835404028352916020019161140a565b820191906000526020600020905b8154815290600101906020018083116113ed57829003601f168201915b505050505081565b6040518060e001604052806060815260200160608152602001606081526020016060815260200160608152602001600073ffffffffffffffffffffffffffffffffffffffff168152602001600081525090565b6000819050919050565b61147881611465565b82525050565b6000602082019050611493600083018461146f565b92915050565b6000604051905090565b600080fd5b600080fd5b600080fd5b600080fd5b6000601f19601f8301169050919050565b7f4e487b7100000000000000000000000000000000000000000000000000000000600052604160045260246000fd5b611500826114b7565b810181811067ffffffffffffffff8211171561151f5761151e6114c8565b5b80604052505050565b6000611532611499565b905061153e82826114f7565b919050565b600067ffffffffffffffff82111561155e5761155d6114c8565b5b611567826114b7565b9050602081019050919050565b82818337600083830152505050565b600061159661159184611543565b611528565b9050828152602081018484840111156115b2576115b16114b2565b5b6115bd848285611574565b509392505050565b600082601f8301126115da576115d96114ad565b5b81356115ea848260208601611583565b91505092915050565b600060208284031215611609576116086114a3565b5b600082013567ffffffffffffffff811115611627576116266114a8565b5b611633848285016115c5565b91505092915050565b600081519050919050565b600082825260208201905092915050565b60005b8381101561167657808201518184015260208101905061165b565b60008484015250505050565b600061168d8261163c565b6116978185611647565b93506116a7818560208601611658565b6116b0816114b7565b840191505092915050565b600073ffffffffffffffffffffffffffffffffffffffff82169050919050565b60006116e6826116bb565b9050919050565b6116f6816116db565b82525050565b600060e0820190508181036000830152611716818a611682565b9050818103602083015261172a8189611682565b9050818103604083015261173e8188611682565b905081810360608301526117528187611682565b905081810360808301526117668186611682565b905061177560a08301856116ed565b61178260c083018461146f565b98975050505050505050565b600080600080600060a086880312156117aa576117a96114a3565b5b600086013567ffffffffffffffff8111156117c8576117c76114a8565b5b6117d4888289016115c5565b955050602086013567ffffffffffffffff8111156117f5576117f46114a8565b5b611801888289016115c5565b945050604086013567ffffffffffffffff811115611822576118216114a8565b5b61182e888289016115c5565b935050606086013567ffffffffffffffff81111561184f5761184e6114a8565b5b61185b888289016115c5565b925050608086013567ffffffffffffffff81111561187c5761187b6114a8565b5b611888888289016115c5565b9150509295509295909350565b600081519050919050565b600082825260208201905092915050565b6000819050602082019050919050565b600082825260208201905092915050565b60006118dd8261163c565b6118e781856118c1565b93506118f7818560208601611658565b611900816114b7565b840191505092915050565b600061191783836118d2565b905092915050565b6000602082019050919050565b600061193782611895565b61194181856118a0565b935083602082028501611953856118b1565b8060005b8581101561198f5784840389528151611970858261190b565b945061197b8361191f565b925060208a01995050600181019050611957565b50829750879550505050505092915050565b600060208201905081810360008301526119bb818461192c565b905092915050565b6119cc81611465565b81146119d757600080fd5b50565b6000813590506119e9816119c3565b92915050565b60008060408385031215611a0657611a056114a3565b5b600083013567ffffffffffffffff811115611a2457611a236114a8565b5b611a30858286016115c5565b9250506020611a41858286016119da565b9150509250929050565b6000602082019050611a6060008301846116ed565b92915050565b611a6f816116db565b8114611a7a57600080fd5b50565b600081359050611a8c81611a66565b92915050565b600060208284031215611aa857611aa76114a3565b5b6000611ab684828501611a7d565b91505092915050565b611ac8816116db565b82525050565b611ad781611465565b82525050565b600060e0830160008301518482036000860152611afa82826118d2565b91505060208301518482036020860152611b1482826118d2565b91505060408301518482036040860152611b2e82826118d2565b91505060608301518482036060860152611b4882826118d2565b91505060808301518482036080860152611b6282826118d2565b91505060a0830151611b7760a0860182611abf565b5060c0830151611b8a60c0860182611ace565b508091505092915050565b60006020820190508181036000830152611baf8184611add565b905092915050565b60008060408385031215611bce57611bcd6114a3565b5b6000611bdc85828601611a7d565b9250506020611bed858286016119da565b9150509250929050565b60006020820190508181036000830152611c118184611682565b905092915050565b7f4e487b7100000000000000000000000000000000000000000000000000000000600052602260045260246000fd5b60006002820490506001821680611c6057607f821691505b602082108103611c7357611c72611c19565b5b50919050565b600081905092915050565b6000611c8f8261163c565b611c998185611c79565b9350611ca9818560208601611658565b80840191505092915050565b6000611cc18284611c84565b915081905092915050565b60008190508160005260206000209050919050565b60006020601f8301049050919050565b600082821b905092915050565b600060088302611d2e7fffffffffffffffffffffffffffffffffffffffffffffffffffffffffffffffff82611cf1565b611d388683611cf1565b95508019841693508086168417925050509392505050565b6000819050919050565b6000611d75611d70611d6b84611465565b611d50565b611465565b9050919050565b6000819050919050565b611d8f83611d5a565b611da3611d9b82611d7c565b848454611cfe565b825550505050565b600090565b611db8611dab565b611dc3818484611d86565b505050565b5b81811015611de757611ddc600082611db0565b600181019050611dc9565b5050565b601f821115611e2c57611dfd81611ccc565b611e0684611ce1565b81016020851015611e15578190505b611e29611e2185611ce1565b830182611dc8565b50505b505050565b600082821c905092915050565b6000611e4f60001984600802611e31565b1980831691505092915050565b6000611e688383611e3e565b9150826002028217905092915050565b611e818261163c565b67ffffffffffffffff811115611e9a57611e996114c8565b5b611ea48254611c48565b611eaf828285611deb565b600060209050601f831160018114611ee25760008415611ed0578287015190505b611eda8582611e5c565b865550611f42565b601f198416611ef086611ccc565b60005b82811015611f1857848901518255600182019150602085019450602081019050611ef3565b86831015611f355784890151611f31601f891682611e3e565b8355505b6001600288020188555050505b505050505050565b7f4e487b7100000000000000000000000000000000000000000000000000000000600052601160045260246000fd5b6000611f8482611465565b9150611f8f83611465565b9250828201905080821115611fa757611fa6611f4a565b5b9291505056fea2646970667358221220302f19c5576d3a618ba5122f9db7fbdeeff1f96d61fd1bd656e3121111d887d764736f6c63430008110033",
  "immutableReferences": {},
  "source": "// SPDX-License-Identifier: GPL-3.0\r\npragma solidity >=0.8.0 <0.9.0;\r\n\r\ncontract ApplicationContract {\r\n    struct Application {\r\n        string id;\r\n        string subject;\r\n        string description;\r\n        string file;\r\n        string location;\r\n        address applierAddress;\r\n        uint256 votes;\r\n    }\r\n\r\n    mapping(string => Application) public applications;\r\n    mapping(address => string[]) public applicationsMadeByAddress;\r\n    mapping(address => uint256) public rewardBank;\r\n    string[] allApplications;\r\n\r\n    function create(\r\n        string memory id,\r\n        string memory subject,\r\n        string memory description,\r\n        string memory location,\r\n        string memory file\r\n    ) public {\r\n        Application memory a;\r\n        a.id = id;\r\n        a.subject = subject;\r\n        a.description = description;\r\n        a.location = location;\r\n        a.applierAddress = msg.sender;\r\n        a.file = file;\r\n        a.votes = 0;\r\n        applications[id] = a;\r\n        applicationsMadeByAddress[msg.sender].push(id);\r\n\r\n        allApplications.push(id);\r\n    }\r\n\r\n\r\n    // function to view appication\r\n    function getApplication(string memory id) public view returns (Application memory) {\r\n        return applications[id];\r\n    }\r\n\r\n    function getApplicationsMadeByAddress() public view returns(string[] memory){\r\n        return applicationsMadeByAddress[msg.sender];\r\n    }\r\n\r\n    function getAllApplicationsID() public view returns(string[] memory){\r\n        return allApplications;\r\n    }\r\n\r\n\r\n    // reward system\r\n    function addUpvote(string memory id, uint256 amount) payable public{\r\n        // require(msg.value == amount);\r\n        // require(amount <= address(msg.sender).balance);\r\n\r\n\r\n        rewardBank[applications[id].applierAddress] += amount;\r\n\r\n        Application memory a = applications[id];\r\n        a.votes += 1;\r\n        applications[a.id] = a;\r\n    }\r\n\r\n    function getBalance() public view returns (uint256) {\r\n        return rewardBank[msg.sender];\r\n    }\r\n\r\n    function withdraw() payable public {\r\n        address payable user = payable(msg.sender);\r\n        user.transfer( rewardBank[msg.sender] );\r\n        rewardBank[msg.sender] = 0;\r\n    }\r\n\r\n    // test function to see your own ID\r\n    function getID() public view returns(address){\r\n        return msg.sender;\r\n    }\r\n\r\n}",
  "sourcePath": "D:\\Git\\projects\\thisDot_opinhacks\\spotlight-main\\report-contract\\contracts\\1_ApplicationContract.sol",
  "compiler": {
    "name": "solc",
    "version": "0.8.17+commit.8df45f5f.Emscripten.clang"
  },
  "schemaVersion": "3.4.13",
  "updatedAt": "2023-09-30T13:54:11.039Z",
  "networkType": "ethereum",
  "devdoc": {
    "kind": "dev",
    "methods": {},
    "version": 1
  },
  "userdoc": {
    "kind": "user",
    "methods": {},
    "version": 1
  }
}